:100000000A128A110C280134FE00030EF0000A08BF
:10001000F1000A128A15A62E0A128A110F280A1256
:100020008A11FE240A128A11C1000A128A11FF24C1
:100030000A128A11C2000A128A1103200A128A11B6
:10004000FB00B201B301B401B501B601B701B801BB
:10005000B901BA01BB01BC01BD01BE01BF01C001B4
:1000600083010A128A11072B83120313AB0010308D
:1000700027062804031D3D283E286728BD01B60138
:10008000B701BC01BB01BE01FF30AB009230F600EE
:100090008530F7008030F8000A128A1577260A1298
:1000A0008A11C430F6008530F700C030F8000A121B
:1000B0008A1577260A128A111330F6008530F70068
:1000C000D030F8000A128A1577260A128A112A30CF
:1000D000831203132B0603196E286F2891282330EF
:1000E0002B0603197428752891282B0A03197928DF
:1000F0007A2891280130FF007F08BD0704303D02B7
:1001000003188328842817290A30F2003B080A12B2
:100110008A1535260A128A11831203132B07BB0096
:1001200017292A302B06031D962897289A28BB01E9
:10013000BD01172923302B06031D9F28A02817294E
:100140000A128A1511260A128A11A030F60085308B
:10015000F7008030F8000A128A1577260A128A11F1
:100160008430F6008530F7009030F8000A128A15C6
:1001700077260A128A11831203131215B430C000B5
:1001800008299D30A6000A30A0000030A1000A30E6
:10019000F2000030F3004008A900AA012908F40089
:1001A0002A08F5000A128A1599270A128A1173087B
:1001B00083120313A3007208A2000A128A15DB2619
:1001C0000A128A11831203132008303E0A128A157C
:1001D00022260A128A119E3083120313A6000A30C7
:1001E000A0000030A1004008A900AA012908A2002F
:1001F0002A08A3000A128A15DB260A128A11831222
:1002000003132008303E0A128A1522260A128A1188
:10021000831203134008031D0E290F29C12840082B
:10022000031D132914291729BE01BE0A121101301A
:10023000B6070318B70A0030B70710303606370480
:10024000031D232924299029B601B7013C0803196D
:100250002A292C2901302D290030BC00C830A600E5
:100260006430F2000030F3003B08A900AA0129081D
:10027000F4002A08F5000A128A1599270A128A1131
:100280007208303E0A128A1522260A128A11C930D3
:1002900083120313A6000A30A0000030A1000A3028
:1002A000F2000030F3003B08A900AA012908F4007D
:1002B0002A08F5000A128A1599270A128A1173086A
:1002C00083120313A3007208A2000A128A15DB2608
:1002D0000A128A11831203132008303E0A128A156B
:1002E00022260A128A11CA3083120313A6000A308A
:1002F000A0000030A1003B08A900AA012908A20023
:100300002A08A3000A128A15DB260A128A11831210
:1003100003132008303E0A128A1522260A128A1177
:10032000831203133C08031996299729A229FA304E
:10033000F6008530F700C830F8000A128A157726D3
:100340000A128A11080083120313AB00103027062B
:100350002804031DAC29AD29D729BA01C001BF016A
:10036000B901B401B501FF30AB00B8013630F60079
:100370008530F7008030F8000A128A1577260A12B5
:100380008A11EC30F6008530F700C030F8000A1210
:100390008A1577260A128A111330F6008530F70085
:1003A000D030F8000A128A1577260A128A112A30EC
:1003B000831203132B060319DE29DF291D2A23309C
:1003C0002B060319E429E5291D2A2B0A0319E9291B
:1003D000EA291D2A0130FF007F08BA0703303A02DC
:1003E0000318F329F429022A0A30F20040080A12FD
:1003F0008A1535260A128A11831203132B07C000AF
:10040000B901472A03303A02031C072A082A472A5F
:1004100005303A0203180D2A0E2A472A0A30F20044
:100420003F080A128A1535260A128A11831203130D
:100430002B07BF00B901B90A472A2A302B06031D32
:10044000222A232A342A3908031D272A282A2B2A5C
:10045000C001BA01472A3903031D2F2A302A472A2F
:10046000BF010230BA00472A23302B06031D392A68
:100470003A2A472A0A128A1511260A128A110730C7
:1004800083120313C1000030C2000715121501309A
:10049000B4070318B50A0030B50710303406350428
:1004A000031D532A542AD62AB401B501380803196A
:1004B0005A2A5C2A01305D2A0030B800C630A600F6
:1004C0000A30F2000030F3003F08A900AA01290811
:1004D000F4002A08F5000A128A1599270A128A11CF
:1004E0007208303E0A128A1522260A128A11C73073
:1004F00083120313A6000A30A0000030A1003F08B9
:10050000A900AA012908A2002A08A3000A128A1534
:10051000DB260A128A11831203132008303E0A12C6
:100520008A1522260A128A11C83083120313A600E4
:100530003A300A128A1522260A128A11C930831209
:100540000313A6000A30F2000030F3004008A900AF
:10055000AA012908F4002A08F5000A128A15992729
:100560000A128A117208303E0A128A1522260A12CD
:100570008A11CA3083120313A6000A30A00000308B
:10058000A1004008A900AA012908A2002A08A30086
:100590000A128A15DB260A128A1183120313200815
:1005A000303E0A128A1522260A128A118312031378
:1005B00038080319DC2ADD2A062BF62AFC30F6005F
:1005C0008530F700C930F8000A128A1577260A121A
:1005D0008A11062BFC30F6008530F700C630F80093
:1005E0000A128A1577260A128A11062B3908A900E1
:1005F000AA012A08003A0319FE2A062B2908003A04
:100600000319DE2A013A0319EA2A062B08000A1206
:100610008A11E0240A128A1101300A128A11DD2798
:100620000A128A1183120313B100023041064204F8
:10063000031D1B2B1C2B832B3103031D202B212B74
:100640004D2B0330C1000030C2001030AF0000302D
:10065000B0000A128A1511260A128A115730F600C4
:100660008530F700C030F8000A128A1577260A1282
:100670008A114D3083120313AE001930AD004F3094
:10068000AC00AC0B412BAD0B412BAE0B412B0A1236
:100690008A1511260A128A11362C02303106031DE2
:1006A000522B532B5C2B0430C1000030C2001030A1
:1006B000AF000030B000472B03303106031D612B23
:1006C000622B6B2B0530C1000030C2001030AF0030
:1006D0000030B000472B04303106031D702B712B06
:1006E000822B1E30C000BF01071512150A128A1591
:1006F00011260A128A11073083120313C100003039
:10070000C200362C362C073041064204031D892BCB
:100710008A2BB72B04303106031D8F2B902BA12B76
:100720004008143EC0003C304002031C982B992B1B
:10073000362C0130FF007F08BF074008C43EC000D0
:10074000362C05303106031DA62BA72BAC2B093008
:10075000C1000030C200362C06303106031DB12B1B
:10076000B22B822B0A30C1000030C200472B093067
:1007700041064204031DBD2BBE2B822B04303106E3
:10078000031DC32BC42B362C071512157B2B0A1205
:100790008A1161240A128A11023083120313C100E4
:1007A0000030C2000A128A1511260A128A11572C2B
:1007B0000A128A154A260A128A11572C3008A800F4
:1007C0002F08A70031080A128A11A3210A128A11E0
:1007D000572C3008A8002F08A70031080A128A11E8
:1007E000A3210A128A11572C3E08031DF82BF92B5E
:1007F000162C3008A8002F08A70031080A128A1109
:1008000034200A128A11831203133E03031D092C9C
:100810000A2C572C0A128A1511260A128A11103036
:1008200083120313AF000030B0000C2B3E03031DF6
:100830001A2C1B2C572C3008A8002F08A7003108B1
:100840000A128A11A3210A128A11572C0A128A113C
:10085000FF250A128A11572C07111211572C071164
:1008600012110230C1000030C200572C8312031352
:100870004208003A03193D2C572C4108013A03194C
:10088000C72B033A0319D82B013A0319E92B073A6E
:100890000319DE2B013A0319F42B023A0319262C13
:1008A0000E3A03192C2C033A03192F2C572C0F3016
:1008B00083120313AF000030B0000C2B0A128A1110
:1008C0000C2883120313AA012A08803EA600FF30D9
:1008D0000A128A1522260A128A1103308312031380
:1008E000A9008A30A8005530A700A70B752CA80BCB
:1008F000752CA90B752C0130FF007F0883120313A0
:10090000AA0710302A02031C862C872C642C253061
:10091000F6008530F700C030F8000A128A157726F5
:100920000A128A11023083120313A9004530A8006D
:10093000A930A700A70B9A2CA80B9A2CA90B9A2CCC
:100940000030F6008530F7009030F8000A128A1562
:1009500077260A128A1183120313AA012A08D03EAD
:10096000A600FF300A128A1522260A128A110330C5
:1009700083120313A9008A30A8005530A700A70BE3
:10098000BF2CA80BBF2CA90BBF2C0130FF007F0888
:1009900083120313AA0710302A02031CD02CD12C77
:1009A000AE2C4D3083120313A9001930A8004F302C
:1009B000A700A70BD92CA80BD92CA90BD92C080060
:1009C0000A128A15E9250A128A110A128A150126C5
:1009D0000A128A11831603130711831203130711D6
:1009E0008316031387108312031387100A128A15C4
:1009F000F4250A128A110B178B17080001340034F2
:100A0000203420346D346934633472346F34773475
:100A100061347634653420346F34763465346E3422
:100A20002034203400342A343A3443344C344534AE
:100A3000413452342034203423343A3445344E3453
:100A40005434453452342934003420342034203492
:100A500070346F3477346534723469346E3467348B
:100A600020344F344E342034203400345334453451
:100A700054342034543449344D34453420342834EB
:100A80004D344D343A3453345334293400347434AF
:100A900069346D3465342034753470342034213435
:100AA0002134203479346F34753472340034203476
:100AB00070346F3477346534723420343D342034EC
:100AC00039343034303477342034003434342E34F4
:100AD000533474346134723474342F345234653482
:100AE000733475346D3465340034203466346F34B7
:100AF0006F34643420346934733420347234653490
:100B000061346434793400342034543449344D34FD
:100B100045342034523445344D342E3420343D3461
:100B20002034003453344534543420345434453460
:100B30004D345034203428346F3443342934003455
:100B4000203420347034723465342D346834653484
:100B50006134743469346E346734003433342E3481
:100B600043346F346E3476346534633474346934AA
:100B70006F346E3400342034543449344D344534A9
:100B800020342D3420340034543445344D34503422
:100B900020343D342034003435342E345034613424
:100BA000753473346534003432342E34473472343F
:100BB00069346C346C34003431342C344D34693441
:100BC000633472346F34003434342E345334743418
:100BD0006134723474340034543449344D344534FF
:100BE0002D342034003436342E34533474346F347E
:100BF0007034003420342034203420340034BB30AE
:100C0000F6008530F7008030F8000A128A15772642
:100C10000A128A11893083120313A6000A30F200E7
:100C20000030F3003F08A700A8012708F4002808B7
:100C3000F5000A128A1599270A128A117208303EA5
:100C40000A128A1522260A128A118A308312031385
:100C5000A6000A30A0000030A1003F08A700A801AC
:100C60002708A2002808A3000A128A15DB260A1208
:100C70008A11831203132008303E0A128A15222695
:100C80000A128A118B3083120313A6003A300A121B
:100C90008A1522260A128A118C3083120313A600A9
:100CA0000A30F2000030F3004008A700A80127082E
:100CB000F4002808F5000A128A1599270A128A11E9
:100CC0007208303E0A128A1522260A128A118D30C5
:100CD00083120313A6000A30A0000030A1004008D0
:100CE000A700A8012708A2002808A3000A128A1555
:100CF000DB260A128A11831203132008303E0A12DF
:100D00008A1522260A128A116630F6008530F7000D
:100D1000C030F8000A128A1577260A128A11CC30E0
:100D2000F6008530F7009030F8000A128A15772611
:100D30000A128A11F330F6008530F700D030F8003F
:100D40000A128A1577260A128A11831203134008A1
:100D5000031DAB2EAC2EEB2E3F08031DB02EB12E83
:100D6000EB2E0A128A1511260A128A114730F60054
:100D70008530F700C030F8000A128A1577260A126B
:100D80008A117530F6008530F7009030F8000A12AD
:100D90008A1577260A128A118312031387147F306B
:100DA00083120313A900D430A8003130A700A70B89
:100DB000D72EA80BD72EA90BD72E0A128A151126CB
:100DC0000A128A11831203138710071112110230BD
:100DD000C1000030C20008008312031388110815F7
:100DE000881408146430F2000030F300FF30F2077A
:100DF0000318F30AFF30F307720A031D032F730A67
:100E0000031D032F042FF62E831203130618092F38
:100E10000A2F0C2F0130A62F86180F2F102F122FFC
:100E20000230A62F0619152F162F182F0330A62FC4
:100E300088150811881408146430F2000030F3009B
:100E4000FF30F2070318F30AFF30F3077308803A04
:100E5000FF0080307F02031D2F2F01307202031824
:100E6000322F332F202F831203130618382F392FD8
:100E70003B2F0430A62F86183E2F3F2F412F0530E1
:100E8000A62F0619442F452F472F0630A62F881569
:100E90000815881008146430F2000030F300FF30A9
:100EA000F2070318F30AFF30F3077308803AFF00D4
:100EB00080307F02031D5E2F013072020318612F04
:100EC000622F4F2F831203130618672F682F6A2F84
:100ED0000730A62F86186D2F6E2F702F0830A62F83
:100EE0000619732F742F762F0930A62F8815081531
:100EF000881408106430F2000030F300FF30F2076D
:100F00000318F30AFF30F3077308803AFF008030BC
:100F10007F02031D8D2F013072020318902F912F35
:100F20007E2F831203130618962F972F992F2A309E
:100F3000A62F86189C2F9D2F9F2F0030A62F0619B5
:100F4000A22FA32FA52F2330A62FFF300800F500D6
:100F50007218AB2FAF2F831203130915B22F831210
:100F6000031309117508F03988008914A630F300BD
:100F7000F30BB82F000083120313891075080F3983
:100F8000F30003300310F30DFF3E031DC22F0310C7
:100F9000730D88008914A630F300F30BCD2F0000E9
:100FA0008312031389101B30F4009E30F300F30BFF
:100FB000D72FF40BD72F00000800F4000A128A1173
:100FC000EC260A128A11F5007408031DE82FE92F98
:100FD000EB2F7508FF2F750A0319EF2FF02FF72F4E
:100FE0007B080319F42FF52FF72FFB01E92F750A62
:100FF000031DFB2FFC2FFE2FFB01FB0AFF30080017
:10100000FF1B0A2883137F1883170008840A03191B
:10101000FF0A08007F087F398A000408840A031940
:04102000FF0A820041
:101BD200831603138801091189100A128A15362700
:101BE2000A128A1508008312031312149214FA308F
:101BF2008316031392008C1483120313121108002C
:101C0200831603130608073886000808F03988008F
:101C12008113831203138815081588140814080009
:101C2200F20101300A128A11A7270A128A1504301A
:101C3200F7003D30F600F60B1C2EF70B1C2E212E62
:101C42000800FA00F2018312031326080A128A110D
:101C5200A7270A128A15F201F20A7A080A128A11D1
:101C6200A7270A128A150800F400F301741C3A2E01
:101C72003B2E3F2E7208FF007F08F3070310F20D80
:101C82000310F40C7408031D472E482E372E7308D8
:101C92000800DC30F6008530F7008030F8000A12C8
:101CA2008A1577260A128A15D430F6008530F70095
:101CB200C030F8000A128A1577260A128A15AE3049
:101CC200F6008530F7009030F8000A128A15772660
:101CD2000A128A15E430F6008530F700D030F80099
:101CE2000A128A1577260A128A150800F201780864
:101CF2000A128A11A7270A128A15952EF201F20AF0
:101D02007708FF00760884000A128A1500200A125A
:101D12008A150A128A11A7270A128A150130F607B4
:101D22000318F70A0030F707770883120313FF003E
:101D3200760884000A128A1500200A128A15003ACF
:101D4200031DA42EA52E7F2E0800831203138C1CC4
:101D5200AB2EAC2ED42E0130B2070318B30A0030DA
:101D6200B307E2303206043003193306031DBA2EDC
:101D7200BB2ED32EB201B30140080319C12EC22ECD
:101D8200C52E0130C002D32E4008031DC92ECA2E13
:101D9200D32E3F080319CE2ECF2ED32E0130BF02F1
:101DA2003B30C0008C1071088A00700E8300FE0E5A
:101DB2007E0E090083120313A501A31FE12EE22E5A
:101DC200E92EA209A309A20A0319A30AA501A50AD9
:101DD200A11FEC2EED2EF22EA009A109A00A0319D3
:101DE200A10A200821040319F72EF82E272FA40197
:101DF200A40A062F01300310A00DA10DFF3E031D02
:101E0200FC2E0130FF007F08A407A11F092F0A2F13
:101E1200FB2E21082302031D102F20082202031C7F
:101E2200132F142F1A2F2008A2022108031CA30328
:101E3200A30201300310A10CA00CFF3E031D1B2FB7
:101E42000130A402031D262F272F0A2F250803196C
:101E52002B2F2C2F312FA209A309A20A0319A30A9F
:101E62002308A1002208A0000800C330F700CD30EB
:101E7200F600F60B3A2FF70B3A2FF20133300A1223
:101E82008A11A7270A128A151B30F7009E30F60026
:101E9200F60B492FF70B492F0000F20133300A12DB
:101EA2008A11A7270A128A15A630F600F60B572FB9
:101EB2000000F20133300A128A11A7270A128A158A
:101EC200622F632F0000F20102300A128A11A72743
:101ED2000A128A15A630F600F60B6D2F0000F201E9
:101EE20028300A128A11A7270A128A15A630F6008C
:101EF200F60B792F0000F20101300A128A11A7278E
:101F02000A128A150430F7003D30F600F60B872FCF
:101F1200F70B872F8C2FF2010C300A128A11A72798
:101F22000A128A15A630F600F60B952F000008005B
:101F3200F701F31F9D2F9E2FA52FF209F309F20A35
:101F42000319F30AF701F70AF51FA82FA92FB22FD9
:101F5200F409F509F40A0319F50A0130FF007F08B4
:101F6200F706F801F901720873040319B92FBA2FA1
:101F7200F12FF601F60AC82F01300310F20DF30D0E
:101F8200FF3E031DBE2F0130FF007F08F607F31F3F
:101F9200CB2FCC2FBD2F01300310F80DF90DFF3ED2
:101FA200031DCD2F73087502031DD92F7208740209
:101FB200031CDC2FDD2FE42F7208F4027308031CCC
:101FC200F503F502781401300310F30CF20CFF3E16
:101FD200031DE52F0130F602031DF02FF12FCC2F48
:101FE20077080319F52FF62FFB2FF809F909F80ADC
:0E1FF2000319F90A7908F3007808F2000800D4
:02400E00FB3F76
:00000001FF
